:100000000C94B5040C94D2040C94D2040C94D20435
:100010000C94D2040C94D2040C94D2040C94D20408
:100020000C94D2040C94D2040C94D2040C94D204F8
:100030000C94D2040C94D2040C94D2040C94D204E8
:100040000C94D2040C94D2040C94D2040C94D204D8
:100050000C94D2040C94D2040C94D2040C94D204C8
:100060000C94D2040C94D204084AD73B3BCE016EC8
:1000700084BCBFFDC12F3D6C74319ABD56833DDAFF
:100080003D00C77F11BED9E4BB4C3E916BAAAABE0E
:10009000000000803F07634236B79BD8A71A396833
:1000A0005618AEBAAB558C1D3CB7CC5763BD6DED41
:1000B000FD753EF6177231BF000000803F05A84C69
:1000C000CDB2D44EB93836A9020C50B99186880801
:1000D0003CA6AAAA2ABE000000803F08000000BE7D
:1000E000922449123EABAAAA2ABECDCCCC4C3E00EB
:1000F000000080BEABAAAAAA3E00000000BF00001C
:1001000000803F0000000000084178D3BB4387D146
:10011000133D190E3CC3BD4282AD2B3E68EC827686
:10012000BED98FE1A93E4C80EFFFBE01C4FF7F3FE7
:10013000000000000000AE2000B0C8001040813F69
:10014000A1A6A83FA4D300D5F0D922DA12DB208DD6
:1001500014AF0000000000000000002F00000000AD
:100160000700070000147F147F1400242A7F2A123E
:10017000006264081323003649552250000005032D
:10018000000000001C224100000041221C0000145D
:10019000083E08140008083E0808000000A060009F
:1001A000000808080808000060600000002010082F
:1001B0000402003E5149453E0000427F400000429B
:1001C00061514946002141454B31001814127F10FE
:1001D000002745454539003C4A494930000171092D
:1001E000050300364949493600064949291E0000E1
:1001F0003636000000005636000000081422410088
:1002000000141414141400004122140800020151B7
:10021000090600324959513E007C1211127C007FC0
:1002200049494936003E41414122007F4141221C5B
:10023000007F49494941007F09090901003E4149C0
:10024000497A007F0808087F0000417F41000020B4
:1002500040413F01007F08142241007F4040404060
:10026000007F020C027F007F0408107F003E4141A6
:10027000413E007F09090906003E4151215E007F91
:10028000091929460046494949310001017F010108
:10029000003F4040403F001F2040201F003F4038AB
:1002A000403F0063140814630007087008070061EA
:1002B0005149454300007F41410000552A552A55C8
:1002C000000041417F000004020102040040404060
:1002D0004040000001020400002054545478007F84
:1002E0004844443800384444442000384444487F5B
:1002F00000385454541800087E0901020018A4A4C0
:10030000A47C007F080404780000447D4000004085
:1003100080847D00007F102844000000417F400061
:10032000007C04180478007C0804047800384444F5
:10033000443800FC242424180018242418FC007CD1
:100340000804040800485454542000043F4440204A
:10035000003C4040207C001C2040201C003C4030E1
:10036000403C004428102844001CA0A0A07C00446D
:1003700064544C44141414141414000000000000BD
:1003800000000000000000000000000000F8000075
:100390000000000000333000000000100C06100CBC
:1003A0000600000000000000000040C07840C07857
:1003B0004000043F04043F040400007088FC08303F
:1003C0000000001820FF211E0000F008F000E018D7
:1003D000000000211C031E211E0000F00888700090
:1003E00000001E2123241927211010160E000000E2
:1003F00000000000000000000000000000E0180401
:100400000200000000071820400000020418E0006D
:1004100000000040201807000000404080F08040AD
:1004200040000202010F01020200000000F0000083
:1004300000000101011F0101010000000000000097
:10044000000080B07000000000000000000000000C
:100450000000000101010101010100000000000095
:10046000000000303000000000000000000080604C
:100470001804006018060100000000E010080810D1
:10048000E000000F102020100F00001010F80000F6
:1004900000000020203F202000000070080808888D
:1004A000700000302824222130000030088888485D
:1004B00030000018202020110E000000C02010F88D
:1004C000000000070424243F240000F8088888085E
:1004D00008000019212020110E0000E01088881863
:1004E0000000000F112020110E0000380808C83845
:1004F00008000000003F0000000000708808088825
:100500007000001C222121221C0000E010080810AD
:10051000E0000000312222110F00000000C0C000E6
:1005200000000000003030000000000000800000EB
:1005300000000000806000000000000080402010EB
:1005400008000001020408102000404040404040E4
:100550004000040404040404040000081020408047
:10056000000000201008040201000070480808087C
:10057000F0000000003036010000C030C828E8104C
:10058000E0000718272423140B000000C038E00007
:100590000000203C23020227382008F88888887051
:1005A0000000203F202020110E00C030080808085D
:1005B0003800071820202010080008F80808081044
:1005C000E000203F202020100F0008F88888E8086D
:1005D0001000203F20202320180008F88888E80811
:1005E0001000203F200003000000C0300808083839
:1005F000000007182020221E020008F8080000084A
:10060000F808203F210101213F20000808F80808D0
:1006100000000020203F2020000000000808F8080B
:100620000800C08080807F00000008F888C028187B
:100630000800203F20012638200008F808000000AC
:100640000000203F20202020300008F8F800F8F8B3
:100650000800203F003F003F200008F830C000089D
:10066000F808203F200007183F00E0100808081095
:10067000E0000F10202020100F0008F808080808DC
:10068000F000203F210101010000E01008080810DF
:10069000E0000F18242438504F0008F88888888814
:1006A0007000203F2000030C3020007088080808EC
:1006B00038000038202121221C00180808F80808FA
:1006C00018000000203F2000000008F80800000883
:1006D000F808001F202020201F000878880000C88C
:1006E0003808000007380E010000F80800F800087C
:1006F000F800033C0700073C030008186880806886
:10070000180820302C03032C30200838C800C838C3
:1007100008000000203F2000000010080808C8382A
:1007200008002038262120201800000000FE0202C8
:1007300002000000007F40404000000C30C000007C
:100740000000000000010638C00000020202FE00A6
:100750000000004040407F00000000000402020250
:100760000400000000000000000000000000000085
:100770000000808080808080808000020204000071
:100780000000000000000000000000008080808069
:1007900000000019242222223F2008F80080800057
:1007A0000000003F112020110E000000008080801A
:1007B0000000000E11202020110000000080808821
:1007C000F800000E112020103F2000008080808063
:1007D0000000001F222222221300008080F088885F
:1007E00088180020203F20200000000080808080AA
:1007F0008000006B94949493600008F800808080DF
:100800000000203F210000203F2000809898000039
:1008100000000020203F2020000000000080989869
:10082000000000C08080807F000008F80000808009
:100830008000203F24022D302000000808F800002E
:1008400000000020203F20200000808080808080E9
:100850008000203F20003F20003F8080008080807B
:100860000000203F210000203F2000008080808089
:100870000000001F202020201F00808000808000BA
:10088000000080FFA12020110E0000000080808069
:100890008000000E112020A0FF80808080008080DA
:1008A000800020203F212000010000008080808007
:1008B00080000033242424241900008080E08080FC
:1008C00000000000001F2020000080800000008049
:1008D0008000001F202020103F20808080000080AA
:1008E000808000010E3008060100808000800080BA
:1008F00080800F300C030C300F000080800080805F
:1009000080000020312E0E31200080808000008089
:10091000808080818E701806010000808080808039
:1009200080000021302C2221300000000000807C5B
:10093000020200000000003F404000000000FF00F5
:10094000000000000000FF0000000002027C8000A8
:1009500000000040403F00000000000601010202CC
:100960000404000000000000000011241FBECFEFAF
:10097000D8E0DEBFCDBF12E0A0E0B1E0E2E6F9E2F0
:1009800002C005900D92A031B107D9F722E0A0E195
:10099000B2E001C01D92A931B207E1F70E94770AC7
:1009A0000C94AF140C940000CF93C82F8A3019F424
:1009B0008DE00E94D404E0ECF0E0808185FFFDCF63
:1009C000C093C60080E090E0CF91089584B18E631B
:1009D00084B985B1807C85B987B1807F87B980E48F
:1009E00080937C00EAE7F0E08081876080838081EB
:1009F000806880831092C50085E08093C400E2EC9B
:100A0000F0E0808186608083E1ECF0E080818861A5
:100A1000808380E091E090931602809315028FEF1F
:100A20009FEF0E94B811089580E00E94FB0B4EE0FA
:100A300051E060E088E10E94340C49E151E062E05D
:100A400080E10E94340C65E080E00E94B90B86E2F0
:100A500091E00E94250C2FE382E49FE0215080402A
:100A60009040E1F700C000000895CF93DF9300D0DD
:100A700000D0CDB7DEB769837A838B839C8344E053
:100A800050E0BE016F5F7F4F8CE090E00E946014E9
:100A90000F900F900F900F90DF91CF910895CF930B
:100AA000DF93EC0144E050E06CE070E00E945014F1
:100AB000688179818A819B819B01AC010E94081029
:100AC000882349F0188219821A821B8260E070E044
:100AD000CB010E943505DF91CF9108950F931F93AD
:100AE000CF93DF9300D01F92CDB7DEB78C01611199
:100AF00003C080EF898302C081EF8983CE01019614
:100B00009F938F930E94A2111B830A83CE010296AA
:100B10009F938F930E94A2118AEF9FEF0E94B811BA
:100B20000F900F900F900F900F900F900F90DF91FC
:100B3000CF911F910F910895FC011082309B04C04A
:100B400081E0809312020BC080911202882339F059
:100B5000309905C010921202808181608083319BA0
:100B600007C081E08093110280818260808307C08A
:100B700080911102882319F0319B10921102329B4F
:100B800007C081E08093100280818460808307C069
:100B900080911002882319F0329B1092100281E09C
:100BA0009081911101C080E0089583E480937C00DE
:100BB000EAE7F0E0808180648083808186FDFDCF5C
:100BC000609178007091790080E090E00E94DD0DE6
:100BD00020E030EC4FE754E40E94350D08958F92E9
:100BE0009F92AF92BF92CF92DF92EF92FF920E94BC
:100BF000D50520E030E040EA50E40E941B0F6B0175
:100C00007C0120E030E040EA50E40E94880F23E6B7
:100C10003FE646E153E40E941B0F4B015C0120E0DC
:100C200030E040E850E4C701B6010E94880F28E296
:100C30003CE44CE055EC0E941B0FA50194010E947E
:100C4000950C4B015C0120E030E040E450E4C7012A
:100C5000B6010E94880F2EE032EF4FE456E40E9466
:100C60001B0FA50194010E94950C4B015C01A7018B
:100C70009601C701B6010E941B0F26E130EE48E144
:100C800057EC0E941B0FA50194010E94950C4B018B
:100C90005C0120EA3AEF4EE557E4C701B6010E9435
:100CA0001B0FA50194010E94950C2EE036ED40E04B
:100CB00057E40E94940C6B017C0120E030E04CE88A
:100CC00052E40E94300D88239CF020E030E04AEF8F
:100CD00053E4C701B6010E940E0F18166CF020E015
:100CE00030E842E255E4C701B6010E94350D08C064
:100CF00060E070E0CB0104C060E070E080E89FEB52
:100D0000FF90EF90DF90CF90BF90AF909F908F902B
:100D1000089595B1917C8E73892B85B908959B01B7
:100D2000215031091216130684F4FC01E60FF71F57
:100D3000DC0180E090E04C9152915D9340830196FC
:100D40002150310982179307B4F30895CF92DF92AF
:100D5000EF92FF920F931F93CF93DF936B018A0162
:100D6000009799F0EB01E0E0F0E00F2EFAE0EF2EB3
:100D7000F12CF02D3196B7010E945811805D8993B6
:100D8000862F972F0097B1F702C0E0E0F0E0E01760
:100D9000F1075CF4EC0DFD1D9601200F311F80E37F
:100DA0008193E217F307E1F701C08F01B801C60193
:100DB0000E948F06E601C00FD11F1882C801DF9183
:100DC000CF911F910F91FF90EF90DF90CF900895FA
:100DD0008F929F92AF92BF92CF92DF92EF92FF924B
:100DE000CF93DF9300D000D000D0CDB7DEB780E046
:100DF0000E94FB0B4BE351E060E08CE00E94340C5E
:100E000063E085E20E94B90B89E491E00E94250C21
:100E10000F2EF0EACF2EF8E6DF2EF6E0EF2EF12CC3
:100E2000F02D0F2EF8EE8F2EF3E09F2EA12CB12C7B
:100E3000F02DCE0106960E949C05882319F08E8124
:100E400082FD28C0C701B601A50194010E946C1162
:100E5000DA01C90143E050E0BE016F5F7F4F0E949D
:100E6000A60663E083E10E94B90BCE0101960E94C1
:100E7000250C2FE38DE093E0215080409040E1F776
:100E800000C0000028EEC21A23E0D20AE108F108EF
:100E900081F62EC043E050E0BE016F5F7F4F80E0DF
:100EA00090E00E94A60663E083E10E94B90BCE01A8
:100EB00001960E94250C8FE39DE023E08150904035
:100EC0002040E1F700C0000080E00E94FB0B60E0E2
:100ED00080E00E94B90B86E591E00E94250C8FE727
:100EE0009AE126E0815090402040E1F700C00000E8
:100EF00026960FB6F894DEBF0FBECDBFDF91CF911F
:100F0000FF90EF90DF90CF90BF90AF909F908F9029
:100F10000895CF92DF92FF920F931F93CF93DF93A9
:100F200000D000D000D0CDB7DEB708E813E10F2E17
:100F3000F8EECF2EF3E0DF2EF02DC801B6010E94AF
:100F40005811CB0142E050E0BE016F5F7F4F0E941D
:100F5000A60680E00E94FB0B60E080E00E94B90BD7
:100F600089E691E00E94250C61E080E00E94B90BC7
:100F70008EE791E00E94250C62E080E00E94B90BB0
:100F8000CE0101960E94250CCE0106960E949C057A
:100F9000F82E882319F08E8181FD0EC02FE38DE09D
:100FA00093E0215080409040E1F700C00000085ECF
:100FB000134019F6F12C22C02FE38DE093E021506D
:100FC00080409040E1F700C0000060E070E0CB019D
:100FD0000E94350580E00E94FB0B60E080E00E94EB
:100FE000B90B84E991E00E94250C2FE78AE196E095
:100FF000215080409040E1F700C000008F2D2696E0
:101000000FB6F894DEBF0FBECDBFDF91CF911F9119
:101010000F91FF90DF90CF9008952F923F924F92C3
:101020005F926F927F928F929F92AF92BF92CF9278
:10103000DF92EF92FF920F931F93CF93DF934B01B9
:101040005C011A0189010E94A70D6B017C0140E03F
:1010500050E0B101C6010E94A606EC01892B29F4DB
:1010600080E3F1018083C1E0D0E00115110589F131
:10107000F101EC0FFD1F8EE28083B801012E000C00
:10108000880B990B0E94DF0D9B01AC0160E070E0C2
:1010900080E291E40E94880F2B013C01B601DD0C37
:1010A000880B990B0E94DF0D9B01AC01C501B401B7
:1010B0000E94940C21962C0E3D1EA30192010E94C9
:1010C0001B0F0E94A70DDC01CB01A801B1010E94FA
:1010D000A606DF91CF911F910F91FF90EF90DF90C7
:1010E000CF90BF90AF909F908F907F906F905F90C8
:1010F0004F903F902F9008952F923F924F925F9282
:101100006F927F928F929F92AF92BF92CF92DF9217
:10111000EF92FF920F931F93CF93DF93CDB7DEB77C
:1011200068970FB6F894DEBF0FBECDBF80E00E9477
:10113000FB0B42EA51E060E084E10E94340C63E082
:1011400088E40E94B90B8EEA91E00E94250C65E0CC
:1011500082E20E94B90B82EB91E00E94250C212CC7
:10116000312C1D8A1E8A1F8A188E198A1A8A1B8A98
:101170001C8A0F2EF0E1AF2EF7E2BF2EF02D0F2EBE
:10118000F8EE8F2EF3E09F2EF02D01E010E0B1017C
:10119000032C000C880B990B0E94DF0D2B013C01E6
:1011A00020E030E04AE754E40E94350D6D877E87E9
:1011B0008F87988B0E94EF056B017C0120E030E067
:1011C000A9010E94300D88231CF4C12CD12C76017A
:1011D00020E030E040EA50E46D857E858F85988977
:1011E0000E94940C0E94010D23E839EF42EA5EE36D
:1011F0000E941B0F20E030E040E05FE30E94950C6E
:101200006D877E878F87988B9B01AC01C701B601E4
:101210000E941B0F9B01AC0169897A898B899C898B
:101220000E94950C698B7A8B8B8B9C8B2D853E85D0
:101230004F8558896D897E898F89988D0E94950C7C
:101240006D8B7E8B8F8B988F9B01AC0169897A891E
:101250008B899C890E94350D6B017C0123E030E075
:10126000AE014F5F5F4F0E940D08C50182199309BF
:10127000B4010E945811CB0142E050E0BE01685F0A
:101280007F4F0E94A60620E030E44CE156E4C30103
:10129000B2010E94350D20E030E040EA50E40E94A7
:1012A0001B0F0E941A0E0E94A70D6F5F7F4F8AF0DE
:1012B00020E030E080E0A801022E02C0440F551F5C
:1012C0000A94E2F7842B2F5F3F4F621773079CF756
:1012D00001C080E00E948906AE014F5F5F4F62E06F
:1012E00080E20E94340C65E086E10E94B90BCE01D9
:1012F00008960E94250C83E294EF0197F1F700C055
:1013000000009AEF290E311C80E1281687E238068A
:1013100009F03DCF80E00E948906C701B6016896BA
:101320000FB6F894DEBF0FBECDBFDF91CF911F91F6
:101330000F91FF90EF90DF90CF90BF90AF909F9074
:101340008F907F906F905F904F903F902F90089577
:10135000CF93DF93CDB7DEB727970FB6F894DEBFF4
:101360000FBECDBF23E030E0AE014F5F5F4F0E9464
:101370000D0880E00E94FB0B4FEB51E060E084E23F
:101380000E94340CAE014F5F5F4F62E083E20E9427
:10139000340C63E08BE40E94B90B8EEA91E00E946A
:1013A000250C2FEB8CE595E1215080409040E1F732
:1013B00000C0000027960FB6F894DEBF0FBECDBF69
:1013C000DF91CF910895FF920F931F93CF93DF93F7
:1013D000CDB7DEB727970FB6F894DEBF0FBECDBFEF
:1013E00023E030E0AE014F5F5F4F0E940D0880E0C8
:1013F0000E94FB0B47EC51E060E08CE00E94340C53
:1014000063E08BE40E94B90B8EEA91E00E94250C08
:10141000AE014F5F5F4F62E083E20E94340C66E0F2
:1014200085E20E94B90B85ED91E00E94250C67E0F2
:1014300083E10E94B90B8FED91E00E94250C00E042
:1014400010E0FF24F394B801012E000C880B990BD7
:101450000E94DF0D20E030E048EC51E40E94350DA1
:1014600020E030E040EA50E40E94350D2BED3FE0F3
:1014700049E450E40E941B0F0E94FC0F20E030E082
:1014800040E85FE30E94950C20E030E040E05FE33D
:101490000E941B0F20E030E040EA50E40E941B0F46
:1014A0000E94D80F0E94A70D8F2D01C0880F6A954A
:1014B000EAF70E94890689E698E10197F1F700C0F2
:1014C0000000075E1F4F003197E2190709F0BBCFFC
:1014D00080E00E94890627960FB6F894DEBF0FBE03
:1014E000CDBFDF91CF911F910F91FF900895CF93C2
:1014F000DF93CDB7DEB767970FB6F894DEBF0FBEA8
:10150000CDBFF894E1E6F0E080E8808383E080835B
:1015100078948FE097E20197F1F700C000000E94F5
:10152000A20B0E94E60481E090E00E94B8110E94A4
:10153000140582E090E00E94B8110E94E80683E062
:1015400090E00E94B811CE0101960E944F0561E023
:10155000CE0101960E946E05D980CA80BB80AC8006
:101560001D821E821F82188623E030E0AE01405F9C
:101570005F4F6D2D7C2D8B2D9A2D0E940D086D8156
:101580007E818F81988523E030E0AE01475F5F4F19
:101590000E940D0880E00E94FB0B4FEE51E060E0DE
:1015A00080E00E94340C46EF51E063E080E00E944E
:1015B000340CAE01405F5F4F60E080E30E94340C6A
:1015C000AE01475F5F4F63E080E30E94340C61E04F
:1015D00088E50E94B90B8EEA91E00E94250C64E038
:1015E00088E50E94B90B8EEA91E00E94250C67E025
:1015F00080E00E94B90B8DEF91E00E94250C1F8ABC
:10160000CE0147960E949C058823D1F38F8980FFE5
:101610001BC00E947C08E62EF72E082F192F862F5C
:101620009F2DA02FB12F8D839E83AF83B8872E2D42
:101630003F2D402F512F6D2D7C2D8B2D9A2D0E94EB
:10164000300D181644F418C081FFDACF0E948907C4
:101650008823B1F22AC06E2D7F2D802F912F0E94FA
:1016600035056D817E818F8198850E94E309DE2C8E
:10167000CF2CB02EA12E06C06E2D7F2D802F912F46
:101680000E94A80911E029813A814B815C816D811A
:101690007E818F8198850E94300D811110E0612F2D
:1016A000CE0105960E946E055FCF1D821E821F82AD
:1016B0001886D12CC12CB12CA12C56CF459A449A16
:1016C00044984598089545984498459A449A0895B1
:1016D00020E030E090E0AC01022E02C0440F551F24
:1016E0000A94E2F747FF02C0449A01C04498459A21
:1016F00045982F5F3F4F2830310569F7449A459A46
:10170000459808950E945E0B88E70E94680B80E070
:101710000E94680B0895CF93C82F0E94820B8C2FD4
:101720000E94680B0E94630BCF9108950E945E0B8C
:1017300088E70E94680B80E40E94680B08950E946D
:10174000630B08950F931F93CF93DF933C9A3D9AB9
:10175000C6E3D1E002E511E0FE0184910E948B0B0B
:101760002196C017D107C1F7DF91CF911F910F913B
:101770000895CF93DF93C82FD62F0E94820B80EB62
:101780008D0F0E94680B8C2F82958F7080610E9454
:10179000680B8C2F8F700E94680B0E94630BDF9187
:1017A000CF910895EF92FF920F931F93CF93DF9302
:1017B000E82EF62E042F122F60E080E00E94B90B75
:1017C0000E94960BC0E0D1E08E2D0E94680B8F2DF9
:1017D0000E94680B802F0E94680B812F0E94680B6B
:1017E000219791F70E94630BDF91CF911F910F9189
:1017F000FF90EF900895282F482F682F0E94D20B5A
:1018000008950F931F93CF93DF93082F0E94960B99
:10181000005210E0C801880F991F080F191F000F10
:10182000111FE801CE5ADE4F085A1E4FFE01849167
:101830000E94680B2196C017D107C1F70E94630B65
:10184000DF91CF911F910F910895CF93DF93EC011A
:101850008881882331F021960E94010C89918111A1
:10186000FBCFDF91CF9108959F92AF92BF92CF921D
:10187000DF92EF92FF920F931F93CF93DF93B82ED7
:10188000962E7A01FA010081002309F441C0A12CAF
:101890000052F8E7FB1510F49394B12C692D8B2DB1
:1018A0000E94B90B0E94960B80E1089F80011124D1
:1018B000E801C658DC4FF801EE57FC4F6F01FE01FE
:1018C00084910E94680B2196CC16DD06C1F70E9418
:1018D0009F0B61E0690D8B2D0E94B90B0E94960B46
:1018E000E801CE57DC4F06571C4FFE0184910E9441
:1018F000680B21960C171D07C1F70E949F0BF8E09B
:10190000BF0EA394F701EA0DF11D00810111C0CFB4
:10191000DF91CF911F910F91FF90EF90DF90CF90CB
:10192000BF90AF909F9008955058BB27AA270E9460
:10193000AC0C0C94BC0E0E94AE0E38F00E94B50E9A
:1019400020F039F49F3F19F426F40C94840E0EF421
:10195000E095E7FB0C94550EE92F0E94CD0E58F34D
:10196000BA17620773078407950720F079F4A6F584
:101970000C94070F0EF4E0950B2EBA2FA02D0B013F
:10198000B90190010C01CA01A0011124FF27591BC4
:1019900099F0593F50F4503E68F11A16F040A22FCA
:1019A000232F342F4427585FF3CF4695379527953B
:1019B000A795F0405395C9F77EF41F16BA0B620B3A
:1019C000730B840BBAF09150A1F0FF0FBB1F661F81
:1019D000771F881FC2F70EC0BA0F621F731F841FC4
:1019E00048F4879577956795B795F7959E3F08F0EA
:1019F000B0CF9395880F08F09927EE0F97958795AC
:101A00000895DF93DD27B92FBF7740E85FE316160F
:101A1000170648075B0718F4D92F0E94130F9F93EE
:101A20008F937F936F930E940410E8E6F0E00E948A
:101A3000870E0E94BC0E2F913F914F915F910E94A3
:101A40002E0FDD2351F09058A2EA2AED3FE049EC39
:101A50005FE3D0785D270E94AC0CDF910C94BC0E44
:101A60000E94310E08F481E008950E94490D0C9403
:101A7000BC0E0E94B50E58F00E94AE0E40F029F444
:101A80005F3F29F00C94550E51110C94080F0C94E3
:101A9000840E0E94CD0E68F39923B1F3552391F380
:101AA000951B550BBB27AA2762177307840738F0CD
:101AB0009F5F5F4F220F331F441FAA1FA9F335D02A
:101AC0000E2E3AF0E0E832D091505040E695001CDE
:101AD000CAF72BD0FE2F29D0660F771F881FBB1F98
:101AE000261737074807AB07B0E809F0BB0B802D76
:101AF000BF01FF2793585F4F3AF09E3F510578F0A2
:101B00000C94550E0C94080F5F3FE4F3983ED4F309
:101B1000869577956795B795F7959F5FC9F7880F75
:101B2000911D9695879597F90895E1E0660F771FC7
:101B3000881FBB1F621773078407BA0720F0621B58
:101B4000730B840BBA0BEE1F88F7E09508950E9483
:101B5000AE0D6894B1110C94080F08950E94D50E33
:101B600088F09F5798F0B92F9927B751B0F0E1F05E
:101B7000660F771F881F991F1AF0BA95C9F714C00E
:101B8000B13091F00E94070FB1E008950C94070F57
:101B9000672F782F8827B85F39F0B93FCCF3869547
:101BA00077956795B395D9F73EF4909580957095A4
:101BB00061957F4F8F4F9F4F0895E89409C097FB21
:101BC0003EF490958095709561957F4F8F4F9F4F14
:101BD0009923A9F0F92F96E9BB279395F695879558
:101BE00077956795B795F111F8CFFAF4BB0F11F41B
:101BF00060FF1BC06F5F7F4F8F4F9F4F16C08823C2
:101C000011F096E911C0772321F09EE8872F762FF7
:101C100005C0662371F096E8862F70E060E02AF038
:101C20009A95660F771F881FDAF7880F9695879524
:101C300097F908950E94EF0E90F09F3748F49111A4
:101C400016F00C94080F60E070E080E89FEB0895B8
:101C500026F41B16611D711D811D0C945B0E0C94E6
:101C6000760E990F0008550FAA0BE0E8FEEF161646
:101C70001706E807F907C0F012161306E407F50780
:101C800098F0621B730B840B950B39F40A2661F0F4
:101C9000232B242B252B21F408950A2609F4A14097
:101CA000A6958FEF811D811D089597F99F6780E8A4
:101CB00070E060E00895882371F4772321F0985054
:101CC000872B762F07C0662311F499270DC09051FA
:101CD000862B70E060E02AF09A95660F771F881FC8
:101CE000DAF7880F9695879597F908959F3F31F019
:101CF000915020F4879577956795B795880F911D3A
:101D00009695879597F908959FEF80EC0895DF9356
:101D1000CF931F930F93FF92EF92DF927B018C0181
:101D2000689406C0DA2EEF010E942E0FFE01E8949F
:101D3000A5912591359145915591A6F3EF010E940A
:101D4000AC0CFE019701A801DA9469F7DF90EF90DF
:101D5000FF900F911F91CF91DF91089500240A9475
:101D60001616170618060906089500240A94121676
:101D70001306140605060895092E0394000C11F4A9
:101D8000882352F0BB0F40F4BF2B11F460FF04C056
:101D90006F5F7F4F8F4F9F4F089557FD9058440FAF
:101DA000551F59F05F3F71F04795880F97FB991FBA
:101DB00061F09F3F79F08795089512161306140677
:101DC000551FF2CF4695F1DF08C016161706180604
:101DD000991FF1CF869571056105089408950E94B9
:101DE000D50EA0F0BEE7B91788F4BB279F3860F482
:101DF0001616B11D672F782F8827985FF7CF869525
:101E000077956795B11D93959639C8F30895E89431
:101E1000BB2766277727CB0197F908950E94310EDB
:101E200008F48FEF08959B01AC0160E070E080E85A
:101E30009FE30C94350D0E942E0F0C94BC0E0E9453
:101E4000AE0E38F00E94B50E20F0952311F00C94E0
:101E5000550E0C94840E11240C94080F0E94CD0E84
:101E600070F3959FC1F3950F50E0551F629FF001ED
:101E7000729FBB27F00DB11D639FAA27F00DB11D06
:101E8000AA1F649F6627B00DA11D661F829F22278F
:101E9000B00DA11D621F739FB00DA11D621F839F16
:101EA000A00D611D221F749F3327A00D611D231FEC
:101EB000849F600D211D822F762F6A2F11249F573A
:101EC00050409AF0F1F088234AF0EE0FFF1FBB1F3D
:101ED000661F771F881F91505040A9F79E3F5105FC
:101EE00080F00C94550E0C94080F5F3FE4F3983E7D
:101EF000D4F3869577956795B795F795E7959F5FA6
:101F0000C1F7FE2B880F911D9695879597F9089537
:101F1000FA01EE0FFF1F309621053105A1F1611581
:101F2000710561F48038BFE39B0749F168949038EC
:101F3000810561F08038BFEF9B0741F099234AF596
:101F4000FF3FE1053105210519F1E8940894E79573
:101F5000D901AA2329F4AB2FBE2FF85FD0F310C00C
:101F6000FF5F70F4A695E0F7F73950F019F0FF3AEB
:101F700038F49F779F930DD00F9007FC90580895E9
:101F800046F00C94840E60E070E080E89FE30895D2
:101F90004FE79F775F934F933F932F930E94C81013
:101FA0002F913F914F915F910E941B0F0C94151040
:101FB0000E94D50EE8F09E37E8F09639B8F49E38C6
:101FC00048F4672F782F8827985FF9CF8695779503
:101FD000679593959539D0F3B62FB1706B0F711D3E
:101FE000811D20F487957795679593950C945B0EEA
:101FF0000C94760E0C94080F9F930E9449100F903A
:1020000007FCEE5F0C9472109B01AC010C941B0F4B
:102010000E94310E880B990B089529F416F00C9448
:10202000550E0C94070F0C94840E0E94D50EA8F345
:102030009638A0F707F80F92E8942BE33AEA48EBBA
:102040005FE70E94310F0F920F920F924DB75EB76C
:102050000F920E941011E5E9F0E00E94870E4F9167
:102060005F91EF91FF91E595EE1FFF1F49F0FE573D
:10207000E0684427EE0F441FFA95E1F74195550BB0
:102080000E948A100F9007FE0C94130F08950C9471
:10209000840E0E94D50ED8F3E894E0E0BB279F574A
:1020A000F0F02AED3FE049EC06C0EE0FBB0F661FD3
:1020B000771F881F28F0B23A62077307840728F059
:1020C000B25A620B730B840BE3959A9572F78038C2
:1020D00030F49A95BB0F661F771F881FD2F7904880
:1020E0000C94780EEF93E0FF07C0A2EA2AED3FE0E0
:1020F00049EC5FEB0E94AC0C0E94BC0E0F90039465
:1021000001FC9058EDEBF0E00C9444110C94550E4A
:102110000C94760E0E94D50ED8F39923C9F3940F30
:10212000511DA3F39150504094F059F0882332F0A0
:10213000660F771F881F91505040C1F79E3F510591
:102140002CF7880F911D9695879597F908955F3F15
:10215000ACF0983E9CF0BB27869577956795B79530
:1021600008F4B1609395C1F7BB0F58F711F460FF05
:10217000E8CF6F5F7F4F8F4F9F4FE3CF0C94080FD7
:1021800016F00C94760E0C94840E68940C94550EF4
:102190000E94D50EA8F39923C1F3AEF3DF93CF933A
:1021A0001F930F93FF92C92FDD2788232AF02197D1
:1021B000660F771F881FDAF720E030E040E85FEB1A
:1021C0009FE3883920F0803E38F021968F770E9477
:1021D000950CEBEDF0E004C00E94950CE8E0F1E016
:1021E0000E94870E8B01BE01EC01FB2E6F57710917
:1021F0007595771F880B990B0E94DF0D28E132E758
:1022000041E35FE30E942E0FAF2D9801AE01FF90D6
:102210000F911F91CF91DF910E94AC0C0C94BC0EDA
:10222000FA01DC01AA0FBB1F9B01AC01BF5728F4C8
:10223000222733274427507820C0B75190F4AB2F82
:102240000024469537952795011CA395D2F30020CD
:1022500071F0220F331F441FB395DAF30ED00C94A4
:10226000940C61307105A0E88A07B94630F49B01EF
:10227000AC016627772788279078309621F0208355
:1022800031834283538308959F938F937F936F93FA
:10229000FF93EF939B01AC010E941B0FEF91FF9105
:1022A0000E94870E2F913F914F915F910C941B0FCD
:1022B00097FB072E16F4009407D077FD09D00E94F3
:1022C0008E1107FC05D03EF4909581959F4F08959F
:1022D000709561957F4F0895A1E21A2EAA1BBB1B32
:1022E000FD010DC0AA1FBB1FEE1FFF1FA217B307E2
:1022F000E407F50720F0A21BB30BE40BF50B661FF8
:10230000771F881F991F1A9469F7609570958095BB
:1023100090959B01AC01BD01CF010895AA1BBB1B89
:1023200051E107C0AA1FBB1FA617B70710F0A61BD5
:10233000B70B881F991F5A95A9F780959095BC01F6
:10234000CD010895A0E0B0E0E8EAF1E10C94881432
:10235000AE014B5F5F4FFA0161917191AF018091C6
:102360001502909116020E94BF11E2E00C94A41491
:1023700060911502709116020E94B6130895ABE0A9
:10238000B0E0E5ECF1E10C9478146C017B018A017A
:10239000FC0117821682838181FFCCC1CE01019698
:1023A0003C01F6019381F70193FD859193FF8191A3
:1023B0007F01882309F4BAC1853239F493FD8591F0
:1023C00093FF81917F01853229F4B60190E00E944C
:1023D000B613E7CF912C212C312CFFE1F315D8F067
:1023E0008B3279F038F4803279F08332A1F4232DE6
:1023F00020611DC08D3261F0803369F4232D21608E
:1024000016C0832D8260382EE32DE4603E2E2AC054
:10241000F32DF8601DC037FC2DC020ED280F2A30A9
:1024200040F08E32B9F436FC81C1232D2064322E67
:1024300019C036FE06C08AE0989E200D1124922E07
:1024400011C0EAE02E9E200D1124222EF32DF06201
:102450003F2E08C08C3621F4832D8068382E02C0B0
:10246000883641F4F70193FD859193FF81917F01B7
:102470008111B3CF982F9F7D9554933028F40C5F32
:102480001F4F9FE399830DC0833631F0833771F07E
:10249000833509F059C021C0F801808189830E5F1E
:1024A0001F4F88248394912C530113C02801F2E01C
:1024B0004F0E511CF801A080B18036FE03C0692D7B
:1024C00070E002C06FEF7FEFC5010E94AB134C01BB
:1024D0008201F32DFF773F2E16C0280122E0420E25
:1024E000511CF801A080B18036FE03C0692D70E058
:1024F00002C06FEF7FEFC5010E94A0134C01F32DC6
:10250000F0683F2E820133FC1BC0822D90E08816BC
:102510009906B0F4B60180E290E00E94B6132A94C6
:10252000F4CFF50137FC859137FE81915F01B6014B
:1025300090E00E94B61321102A9421E0821A91089B
:102540008114910471F7E8C0843611F0893641F5A1
:10255000F80137FE07C060817181828193810C5F31
:102560001F4F08C060817181072E000C880B990BEA
:102570000E5F1F4FF32DFF763F2E97FF09C09095FA
:102580008095709561957F4F8F4F9F4FF0683F2EDC
:102590002AE030E0A3010E94F213882E861845C07D
:1025A000853731F4232D2F7EB22E2AE030E025C06E
:1025B000932D997FB92E8F36C1F018F4883579F0B4
:1025C000B5C0803719F0883721F0B0C0E92FE0613D
:1025D000BE2EB4FE0DC0FB2DF460BF2E09C034FE2C
:1025E0000AC0292F2660B22E06C028E030E005C0C0
:1025F00020E130E002C020E132E0F801B7FE07C080
:1026000060817181828193810C5F1F4F06C0608160
:10261000718180E090E00E5F1F4FA3010E94F213D2
:10262000882E8618FB2DFF773F2E36FE0DC0232DFA
:102630002E7FA22E891458F434FE0BC032FC09C040
:10264000832D8E7EA82E05C0B82CA32C03C0B82CD9
:1026500001C0B92CA4FE0FC0FE01E80DF11D808160
:10266000803321F49A2D997EA92E09C0A2FE06C0BE
:10267000B394B39404C08A2D867809F0B394A3FC74
:1026800011C0A0FE06C0B21488F4280C922C9B182E
:102690000EC0B21460F4B60180E290E00E94B6135E
:1026A000B394F7CFB21418F42B1802C0982C212C35
:1026B000A4FE10C0B60180E390E00E94B613A2FE13
:1026C00017C0A1FC03C088E790E002C088E590E055
:1026D000B6010CC08A2D867859F0A1FE02C08BE2AB
:1026E00001C080E2A7FC8DE2B60190E00E94B61323
:1026F000891438F4B60180E390E00E94B6139A94EE
:10270000F7CF8A94F301E80DF11D8081B60190E0C6
:102710000E94B6138110F5CF222009F442CEB601F3
:1027200080E290E00E94B6132A94F6CFF6018681EB
:10273000978102C08FEF9FEF2B96E2E10C949414E7
:10274000FC010590615070400110D8F7809590957C
:102750008E0F9F1F0895FC01615070400190011081
:10276000D8F7809590958E0F9F1F08950F931F9314
:10277000CF93DF93FB01238121FD03C08FEF9FEFF8
:102780002CC022FF16C04681578124813581421713
:10279000530744F4A081B1819D012F5F3F4F3183E6
:1027A00020838C93268137812F5F3F4F3783268389
:1027B00014C08B01EC01FB010084F185E02D09952B
:1027C000892BE1F6D80116968D919C911797019669
:1027D00017969C938E931697CE01DF91CF911F9100
:1027E0000F910895FA01AA27283051F1203181F183
:1027F000E8946F936E7F6E5F7F4F8F4F9F4FAF4F09
:10280000B1E03ED0B4E03CD0670F781F891F9A1F1B
:10281000A11D680F791F8A1F911DA11D6A0F711DCF
:10282000811D911DA11D20D009F468943F912AE0DB
:10283000269F11243019305D3193DEF6CF010895C3
:10284000462F4770405D4193B3E00FD0C9F7F6CFF4
:10285000462F4F70405D4A3318F0495D31FD4052BC
:10286000419302D0A9F7EACFB4E0A6959795879552
:1028700077956795BA95C9F7009761057105089531
:102880009B01AC010A2E06945795479537952795DD
:10289000BA95C9F7620F731F841F951FA01D089575
:1028A000DC01CB01FC01F999FECF06C0F2BDE1BD10
:1028B000F89A319600B40D9241505040B8F70895FF
:1028C000DC01CB0103C02D910E946B14415050409C
:1028D000D0F70895262FF999FECF1FBA92BD81BD7A
:1028E00020BD0FB6F894FA9AF99A0FBE0196089592
:1028F0002F923F924F925F926F927F928F929F9210
:10290000AF92BF92CF92DF92EF92FF920F931F93FD
:10291000CF93DF93CDB7DEB7CA1BDB0B0FB6F894AE
:10292000DEBF0FBECDBF09942A88398848885F84EE
:102930006E847D848C849B84AA84B984C884DF805F
:10294000EE80FD800C811B81AA81B981CE0FD11D43
:102950000FB6F894DEBF0FBECDBFED010895F89419
:02296000FFCFA7
:102962000000000200000000D404000000004869DA
:1029720067682053636F72650042726561746861B3
:102982006C797A65720042792050617261646F7865
:1029920020436F6D707574696E67005761726D695F
:1029A2006E672075702E2E2E00732052656D616940
:1029B2006E696E672E005761726D7570206F766555
:1029C2007272696464656E2E0052657365742E209E
:1029D20041726520796F7520737572653F00486F8B
:1029E2006C6420646F776E20746F20636F6E66690B
:1029F200726D2E004D656D6F72792072657365740C
:102A02002E0053616D706C696E672E2E2E0062610E
:102A12006300732072656D61696E696E672E005383
:102A2200616D706C653A00484947482053434F52E4
:102A32004521212100436F6E677261747321005931
:102A42006F752772652061206472756E6B21004874
:102A52006967683A20004C6173743A2000526561DC
:102A6200647920746F2073616D706C652E2E2E0058
:00000001FF
